{
  "contractName": "KittyCoinClub",
  "abi": [
    {
      "constant": true,
      "inputs": [],
      "name": "name",
      "outputs": [
        {
          "name": "",
          "type": "string"
        }
      ],
      "payable": false,
      "stateMutability": "view",
      "type": "function"
    },
    {
      "constant": true,
      "inputs": [
        {
          "name": "",
          "type": "address"
        }
      ],
      "name": "kittyCoinCount",
      "outputs": [
        {
          "name": "",
          "type": "uint256"
        }
      ],
      "payable": false,
      "stateMutability": "view",
      "type": "function"
    },
    {
      "constant": true,
      "inputs": [
        {
          "name": "",
          "type": "address"
        }
      ],
      "name": "donationCount",
      "outputs": [
        {
          "name": "",
          "type": "uint256"
        }
      ],
      "payable": false,
      "stateMutability": "view",
      "type": "function"
    },
    {
      "constant": true,
      "inputs": [
        {
          "name": "",
          "type": "uint256"
        }
      ],
      "name": "trusts",
      "outputs": [
        {
          "name": "trustEnabled",
          "type": "bool"
        },
        {
          "name": "trustAddress",
          "type": "address"
        }
      ],
      "payable": false,
      "stateMutability": "view",
      "type": "function"
    },
    {
      "constant": true,
      "inputs": [
        {
          "name": "",
          "type": "address"
        }
      ],
      "name": "trusted",
      "outputs": [
        {
          "name": "",
          "type": "bool"
        }
      ],
      "payable": false,
      "stateMutability": "view",
      "type": "function"
    },
    {
      "constant": true,
      "inputs": [
        {
          "name": "",
          "type": "uint256"
        }
      ],
      "name": "kittyCoinToOwner",
      "outputs": [
        {
          "name": "",
          "type": "address"
        }
      ],
      "payable": false,
      "stateMutability": "view",
      "type": "function"
    },
    {
      "constant": true,
      "inputs": [
        {
          "name": "",
          "type": "uint256"
        }
      ],
      "name": "donationToDonator",
      "outputs": [
        {
          "name": "",
          "type": "address"
        }
      ],
      "payable": false,
      "stateMutability": "view",
      "type": "function"
    },
    {
      "constant": true,
      "inputs": [
        {
          "name": "",
          "type": "uint256"
        }
      ],
      "name": "kitties",
      "outputs": [
        {
          "name": "donationsEnabled",
          "type": "bool"
        },
        {
          "name": "trustAddress",
          "type": "address"
        },
        {
          "name": "fosterAddress",
          "type": "address"
        },
        {
          "name": "kittyTraitSeed",
          "type": "bytes5"
        },
        {
          "name": "donationCap",
          "type": "uint256"
        },
        {
          "name": "donationAmount",
          "type": "uint256"
        }
      ],
      "payable": false,
      "stateMutability": "view",
      "type": "function"
    },
    {
      "constant": true,
      "inputs": [],
      "name": "owner",
      "outputs": [
        {
          "name": "",
          "type": "address"
        }
      ],
      "payable": false,
      "stateMutability": "view",
      "type": "function"
    },
    {
      "constant": true,
      "inputs": [],
      "name": "symbol",
      "outputs": [
        {
          "name": "",
          "type": "string"
        }
      ],
      "payable": false,
      "stateMutability": "view",
      "type": "function"
    },
    {
      "constant": true,
      "inputs": [],
      "name": "erc721Metadata",
      "outputs": [
        {
          "name": "",
          "type": "address"
        }
      ],
      "payable": false,
      "stateMutability": "view",
      "type": "function"
    },
    {
      "constant": true,
      "inputs": [
        {
          "name": "",
          "type": "uint256"
        }
      ],
      "name": "kittyCoinToApproved",
      "outputs": [
        {
          "name": "",
          "type": "address"
        }
      ],
      "payable": false,
      "stateMutability": "view",
      "type": "function"
    },
    {
      "constant": true,
      "inputs": [
        {
          "name": "",
          "type": "address"
        }
      ],
      "name": "kittyCount",
      "outputs": [
        {
          "name": "",
          "type": "uint256"
        }
      ],
      "payable": false,
      "stateMutability": "view",
      "type": "function"
    },
    {
      "constant": true,
      "inputs": [
        {
          "name": "",
          "type": "uint256"
        }
      ],
      "name": "kittyToTrust",
      "outputs": [
        {
          "name": "",
          "type": "address"
        }
      ],
      "payable": false,
      "stateMutability": "view",
      "type": "function"
    },
    {
      "constant": true,
      "inputs": [
        {
          "name": "",
          "type": "uint256"
        }
      ],
      "name": "trustIdToAddress",
      "outputs": [
        {
          "name": "",
          "type": "address"
        }
      ],
      "payable": false,
      "stateMutability": "view",
      "type": "function"
    },
    {
      "constant": false,
      "inputs": [
        {
          "name": "newOwner",
          "type": "address"
        }
      ],
      "name": "transferOwnership",
      "outputs": [],
      "payable": false,
      "stateMutability": "nonpayable",
      "type": "function"
    },
    {
      "constant": true,
      "inputs": [
        {
          "name": "",
          "type": "address"
        }
      ],
      "name": "pendingWithdrawals",
      "outputs": [
        {
          "name": "",
          "type": "uint256"
        }
      ],
      "payable": false,
      "stateMutability": "view",
      "type": "function"
    },
    {
      "constant": true,
      "inputs": [
        {
          "name": "",
          "type": "uint256"
        }
      ],
      "name": "donations",
      "outputs": [
        {
          "name": "kittyId",
          "type": "uint256"
        },
        {
          "name": "trustAddress",
          "type": "address"
        },
        {
          "name": "fosterAddress",
          "type": "address"
        },
        {
          "name": "trustAmount",
          "type": "uint256"
        },
        {
          "name": "fosterAmount",
          "type": "uint256"
        }
      ],
      "payable": false,
      "stateMutability": "view",
      "type": "function"
    },
    {
      "inputs": [],
      "payable": true,
      "stateMutability": "payable",
      "type": "constructor"
    },
    {
      "anonymous": false,
      "inputs": [
        {
          "indexed": false,
          "name": "_owner",
          "type": "address"
        },
        {
          "indexed": false,
          "name": "kittyCoinId",
          "type": "uint256"
        },
        {
          "indexed": false,
          "name": "kittyId",
          "type": "uint256"
        },
        {
          "indexed": false,
          "name": "donationId",
          "type": "uint256"
        },
        {
          "indexed": false,
          "name": "coinSeed",
          "type": "uint256"
        }
      ],
      "name": "NewKittyCoin",
      "type": "event"
    },
    {
      "anonymous": false,
      "inputs": [
        {
          "indexed": false,
          "name": "donationId",
          "type": "uint256"
        },
        {
          "indexed": false,
          "name": "kittyId",
          "type": "uint256"
        },
        {
          "indexed": false,
          "name": "trustAmount",
          "type": "uint256"
        },
        {
          "indexed": false,
          "name": "fosterAmount",
          "type": "uint256"
        },
        {
          "indexed": false,
          "name": "totalDonationAmount",
          "type": "uint256"
        }
      ],
      "name": "NewDonation",
      "type": "event"
    },
    {
      "anonymous": false,
      "inputs": [
        {
          "indexed": false,
          "name": "kittyId",
          "type": "uint256"
        },
        {
          "indexed": false,
          "name": "trustAddress",
          "type": "address"
        },
        {
          "indexed": false,
          "name": "fosterAddress",
          "type": "address"
        },
        {
          "indexed": false,
          "name": "traitSeed",
          "type": "bytes5"
        },
        {
          "indexed": false,
          "name": "donationCap",
          "type": "uint256"
        }
      ],
      "name": "NewKitty",
      "type": "event"
    },
    {
      "anonymous": false,
      "inputs": [
        {
          "indexed": false,
          "name": "trustId",
          "type": "uint256"
        }
      ],
      "name": "NewTrust",
      "type": "event"
    },
    {
      "anonymous": false,
      "inputs": [
        {
          "indexed": false,
          "name": "trustId",
          "type": "uint256"
        },
        {
          "indexed": false,
          "name": "trustAddr",
          "type": "address"
        }
      ],
      "name": "ChangedTrustAddress",
      "type": "event"
    },
    {
      "anonymous": false,
      "inputs": [
        {
          "indexed": false,
          "name": "from",
          "type": "address"
        },
        {
          "indexed": false,
          "name": "to",
          "type": "address"
        },
        {
          "indexed": false,
          "name": "tokenId",
          "type": "uint256"
        }
      ],
      "name": "Transfer",
      "type": "event"
    },
    {
      "anonymous": false,
      "inputs": [
        {
          "indexed": false,
          "name": "owner",
          "type": "address"
        },
        {
          "indexed": false,
          "name": "approved",
          "type": "address"
        },
        {
          "indexed": false,
          "name": "tokenId",
          "type": "uint256"
        }
      ],
      "name": "Approval",
      "type": "event"
    },
    {
      "anonymous": false,
      "inputs": [
        {
          "indexed": true,
          "name": "previousOwner",
          "type": "address"
        },
        {
          "indexed": true,
          "name": "newOwner",
          "type": "address"
        }
      ],
      "name": "OwnershipTransferred",
      "type": "event"
    },
    {
      "constant": true,
      "inputs": [
        {
          "name": "_interfaceID",
          "type": "bytes4"
        }
      ],
      "name": "supportsInterface",
      "outputs": [
        {
          "name": "",
          "type": "bool"
        }
      ],
      "payable": false,
      "stateMutability": "view",
      "type": "function"
    },
    {
      "constant": false,
      "inputs": [
        {
          "name": "_contractAddress",
          "type": "address"
        }
      ],
      "name": "setMetadataAddress",
      "outputs": [],
      "payable": false,
      "stateMutability": "nonpayable",
      "type": "function"
    },
    {
      "constant": true,
      "inputs": [
        {
          "name": "_owner",
          "type": "address"
        }
      ],
      "name": "balanceOf",
      "outputs": [
        {
          "name": "count",
          "type": "uint256"
        }
      ],
      "payable": false,
      "stateMutability": "view",
      "type": "function"
    },
    {
      "constant": false,
      "inputs": [
        {
          "name": "_to",
          "type": "address"
        },
        {
          "name": "_tokenId",
          "type": "uint256"
        }
      ],
      "name": "transfer",
      "outputs": [],
      "payable": false,
      "stateMutability": "nonpayable",
      "type": "function"
    },
    {
      "constant": false,
      "inputs": [
        {
          "name": "_to",
          "type": "address"
        },
        {
          "name": "_tokenId",
          "type": "uint256"
        }
      ],
      "name": "approve",
      "outputs": [],
      "payable": false,
      "stateMutability": "nonpayable",
      "type": "function"
    },
    {
      "constant": false,
      "inputs": [
        {
          "name": "_from",
          "type": "address"
        },
        {
          "name": "_to",
          "type": "address"
        },
        {
          "name": "_tokenId",
          "type": "uint256"
        }
      ],
      "name": "transferFrom",
      "outputs": [],
      "payable": false,
      "stateMutability": "nonpayable",
      "type": "function"
    },
    {
      "constant": true,
      "inputs": [],
      "name": "totalSupply",
      "outputs": [
        {
          "name": "",
          "type": "uint256"
        }
      ],
      "payable": false,
      "stateMutability": "view",
      "type": "function"
    },
    {
      "constant": true,
      "inputs": [
        {
          "name": "_tokenId",
          "type": "uint256"
        }
      ],
      "name": "ownerOf",
      "outputs": [
        {
          "name": "_owner",
          "type": "address"
        }
      ],
      "payable": false,
      "stateMutability": "view",
      "type": "function"
    },
    {
      "constant": true,
      "inputs": [
        {
          "name": "_owner",
          "type": "address"
        }
      ],
      "name": "tokensOfOwner",
      "outputs": [
        {
          "name": "ownerTokens",
          "type": "uint256[]"
        }
      ],
      "payable": false,
      "stateMutability": "view",
      "type": "function"
    },
    {
      "constant": true,
      "inputs": [
        {
          "name": "_tokenId",
          "type": "uint256"
        },
        {
          "name": "_preferredTransport",
          "type": "string"
        }
      ],
      "name": "tokenMetadata",
      "outputs": [
        {
          "name": "infoUrl",
          "type": "string"
        }
      ],
      "payable": false,
      "stateMutability": "view",
      "type": "function"
    },
    {
      "constant": false,
      "inputs": [],
      "name": "withdraw",
      "outputs": [],
      "payable": false,
      "stateMutability": "nonpayable",
      "type": "function"
    },
    {
      "constant": true,
      "inputs": [],
      "name": "getDonations",
      "outputs": [
        {
          "name": "",
          "type": "uint256[]"
        }
      ],
      "payable": false,
      "stateMutability": "view",
      "type": "function"
    },
    {
      "constant": true,
      "inputs": [],
      "name": "getKitties",
      "outputs": [
        {
          "name": "",
          "type": "uint256[]"
        }
      ],
      "payable": false,
      "stateMutability": "view",
      "type": "function"
    },
    {
      "constant": false,
      "inputs": [
        {
          "name": "_donationId",
          "type": "uint256"
        }
      ],
      "name": "createRandomKittyCoin",
      "outputs": [
        {
          "name": "",
          "type": "uint256"
        }
      ],
      "payable": false,
      "stateMutability": "nonpayable",
      "type": "function"
    },
    {
      "constant": false,
      "inputs": [
        {
          "name": "_kittyId",
          "type": "uint256"
        },
        {
          "name": "_trustAmount",
          "type": "uint256"
        },
        {
          "name": "_fosterAmount",
          "type": "uint256"
        }
      ],
      "name": "makeDonation",
      "outputs": [],
      "payable": true,
      "stateMutability": "payable",
      "type": "function"
    },
    {
      "constant": true,
      "inputs": [
        {
          "name": "_donator",
          "type": "address"
        }
      ],
      "name": "getDonationsByDonator",
      "outputs": [
        {
          "name": "",
          "type": "uint256[]"
        }
      ],
      "payable": false,
      "stateMutability": "view",
      "type": "function"
    },
    {
      "constant": true,
      "inputs": [
        {
          "name": "_donationId",
          "type": "uint256"
        }
      ],
      "name": "getDonation",
      "outputs": [
        {
          "name": "kittyId",
          "type": "uint256"
        },
        {
          "name": "trustAddress",
          "type": "address"
        },
        {
          "name": "fosterAddress",
          "type": "address"
        },
        {
          "name": "trustAmount",
          "type": "uint256"
        },
        {
          "name": "fosterAmount",
          "type": "uint256"
        }
      ],
      "payable": false,
      "stateMutability": "view",
      "type": "function"
    },
    {
      "constant": false,
      "inputs": [
        {
          "name": "_fosterAddress",
          "type": "address"
        },
        {
          "name": "_traitSeed",
          "type": "bytes5"
        },
        {
          "name": "_donationCap",
          "type": "uint256"
        }
      ],
      "name": "createKitty",
      "outputs": [],
      "payable": false,
      "stateMutability": "nonpayable",
      "type": "function"
    },
    {
      "constant": true,
      "inputs": [
        {
          "name": "_kittyId",
          "type": "uint256"
        }
      ],
      "name": "getKitty",
      "outputs": [
        {
          "name": "isEnabled",
          "type": "bool"
        },
        {
          "name": "trustAddress",
          "type": "address"
        },
        {
          "name": "fosterAddress",
          "type": "address"
        },
        {
          "name": "traitSeed",
          "type": "bytes5"
        },
        {
          "name": "donationCap",
          "type": "uint256"
        },
        {
          "name": "donationAmount",
          "type": "uint256"
        }
      ],
      "payable": false,
      "stateMutability": "view",
      "type": "function"
    },
    {
      "constant": false,
      "inputs": [
        {
          "name": "_trustAddr",
          "type": "address"
        }
      ],
      "name": "createTrust",
      "outputs": [],
      "payable": false,
      "stateMutability": "nonpayable",
      "type": "function"
    },
    {
      "constant": false,
      "inputs": [
        {
          "name": "_id",
          "type": "uint256"
        },
        {
          "name": "_enabled",
          "type": "bool"
        }
      ],
      "name": "toggleTrust",
      "outputs": [],
      "payable": false,
      "stateMutability": "nonpayable",
      "type": "function"
    },
    {
      "constant": false,
      "inputs": [
        {
          "name": "_id",
          "type": "uint256"
        },
        {
          "name": "_newTrustAddr",
          "type": "address"
        }
      ],
      "name": "changeTrustAddress",
      "outputs": [],
      "payable": false,
      "stateMutability": "nonpayable",
      "type": "function"
    },
    {
      "constant": true,
      "inputs": [
        {
          "name": "_address",
          "type": "address"
        }
      ],
      "name": "isTrustAddress",
      "outputs": [
        {
          "name": "",
          "type": "bool"
        }
      ],
      "payable": false,
      "stateMutability": "view",
      "type": "function"
    }
  ],
  "bytecode": "0x60806040526010601155601154600a0a601255336000806101000a81548173ffffffffffffffffffffffffffffffffffffffff021916908373ffffffffffffffffffffffffffffffffffffffff16021790555033600160006101000a81548173ffffffffffffffffffffffffffffffffffffffff021916908373ffffffffffffffffffffffffffffffffffffffff160217905550613c75806100a26000396000f3006080604052600436106101f9576000357c0100000000000000000000000000000000000000000000000000000000900463ffffffff16806301ffc9a7146101fe5780630560ff441461026257806306fdde0314610320578063088996cf146103b0578063095ea7b3146104255780630b540bd81461047257806318160ddd146104b35780631baa1e8d146104de57806323b872dd146105355780633ccfd60b146105a25780634322123a146105b9578063582c4e2b146106105780635c0147c21461068857806360b6b58f146106cb5780636352211e146106ff5780636e9821c21461076c57806370a08231146107c75780638462151c1461081e57806384c3a5a6146108b65780638b85173c146109235780638cc51eda146109905780638da5cb5b14610a8c57806395d89b4114610ae35780639c10f4fe14610b73578063a85db3ee14610c0b578063a9059cbb14610c58578063bc4006f514610ca5578063befb3aa014610cfc578063bf6f1ce114610d57578063cf31965d14610dc4578063d900fdde14610e1b578063d9d049b814610e88578063e17b25af14610ef5578063e25f841614610f38578063e98b7f4d14610fa4578063ef07a81f146110a0578063f2fde38b14611155578063f3f4370314611198578063f8626af8146111ef578063fb2dfa45146112a4578063fc2efaee14611310575b600080fd5b34801561020a57600080fd5b5061024860048036038101908080357bffffffffffffffffffffffffffffffffffffffffffffffffffffffff19169060200190929190505050611349565b604051808215151515815260200191505060405180910390f35b34801561026e57600080fd5b506102a56004803603810190808035906020019092919080359060200190820180359060200191909192939192939050505061165a565b6040518080602001828103825283818151815260200191508051906020019080838360005b838110156102e55780820151818401526020810190506102ca565b50505050905090810190601f1680156103125780820380516001836020036101000a031916815260200191505b509250505060405180910390f35b34801561032c57600080fd5b506103356117e3565b6040518080602001828103825283818151815260200191508051906020019080838360005b8381101561037557808201518184015260208101905061035a565b50505050905090810190601f1680156103a25780820380516001836020036101000a031916815260200191505b509250505060405180910390f35b3480156103bc57600080fd5b50610423600480360381019080803573ffffffffffffffffffffffffffffffffffffffff16906020019092919080357affffffffffffffffffffffffffffffffffffffffffffffffffffff191690602001909291908035906020019092919050505061181c565b005b34801561043157600080fd5b50610470600480360381019080803573ffffffffffffffffffffffffffffffffffffffff16906020019092919080359060200190929190505050611896565b005b34801561047e57600080fd5b5061049d60048036038101908080359060200190929190505050611958565b6040518082815260200191505060405180910390f35b3480156104bf57600080fd5b506104c8611a40565b6040518082815260200191505060405180910390f35b3480156104ea57600080fd5b5061051f600480360381019080803573ffffffffffffffffffffffffffffffffffffffff169060200190929190505050611a50565b6040518082815260200191505060405180910390f35b34801561054157600080fd5b506105a0600480360381019080803573ffffffffffffffffffffffffffffffffffffffff169060200190929190803573ffffffffffffffffffffffffffffffffffffffff16906020019092919080359060200190929190505050611a68565b005b3480156105ae57600080fd5b506105b7611b19565b005b3480156105c557600080fd5b506105fa600480360381019080803573ffffffffffffffffffffffffffffffffffffffff169060200190929190505050611bec565b6040518082815260200191505060405180910390f35b34801561061c57600080fd5b5061063b60048036038101908080359060200190929190505050611c04565b60405180831515151581526020018273ffffffffffffffffffffffffffffffffffffffff1673ffffffffffffffffffffffffffffffffffffffff1681526020019250505060405180910390f35b34801561069457600080fd5b506106c9600480360381019080803573ffffffffffffffffffffffffffffffffffffffff169060200190929190505050611c60565b005b6106fd600480360381019080803590602001909291908035906020019092919080359060200190929190505050611cca565b005b34801561070b57600080fd5b5061072a60048036038101908080359060200190929190505050611e6a565b604051808273ffffffffffffffffffffffffffffffffffffffff1673ffffffffffffffffffffffffffffffffffffffff16815260200191505060405180910390f35b34801561077857600080fd5b506107ad600480360381019080803573ffffffffffffffffffffffffffffffffffffffff169060200190929190505050611ee3565b604051808215151515815260200191505060405180910390f35b3480156107d357600080fd5b50610808600480360381019080803573ffffffffffffffffffffffffffffffffffffffff169060200190929190505050611f03565b6040518082815260200191505060405180910390f35b34801561082a57600080fd5b5061085f600480360381019080803573ffffffffffffffffffffffffffffffffffffffff169060200190929190505050611f4c565b6040518080602001828103825283818151815260200191508051906020019060200280838360005b838110156108a2578082015181840152602081019050610887565b505050509050019250505060405180910390f35b3480156108c257600080fd5b506108e16004803603810190808035906020019092919050505061209a565b604051808273ffffffffffffffffffffffffffffffffffffffff1673ffffffffffffffffffffffffffffffffffffffff16815260200191505060405180910390f35b34801561092f57600080fd5b5061094e600480360381019080803590602001909291905050506120cd565b604051808273ffffffffffffffffffffffffffffffffffffffff1673ffffffffffffffffffffffffffffffffffffffff16815260200191505060405180910390f35b34801561099c57600080fd5b506109bb60048036038101908080359060200190929190505050612100565b60405180871515151581526020018673ffffffffffffffffffffffffffffffffffffffff1673ffffffffffffffffffffffffffffffffffffffff1681526020018573ffffffffffffffffffffffffffffffffffffffff1673ffffffffffffffffffffffffffffffffffffffff168152602001847affffffffffffffffffffffffffffffffffffffffffffffffffffff19167affffffffffffffffffffffffffffffffffffffffffffffffffffff19168152602001838152602001828152602001965050505050505060405180910390f35b348015610a9857600080fd5b50610aa16121c0565b604051808273ffffffffffffffffffffffffffffffffffffffff1673ffffffffffffffffffffffffffffffffffffffff16815260200191505060405180910390f35b348015610aef57600080fd5b50610af86121e5565b6040518080602001828103825283818151815260200191508051906020019080838360005b83811015610b38578082015181840152602081019050610b1d565b50505050905090810190601f168015610b655780820380516001836020036101000a031916815260200191505b509250505060405180910390f35b348015610b7f57600080fd5b50610bb4600480360381019080803573ffffffffffffffffffffffffffffffffffffffff16906020019092919050505061221e565b6040518080602001828103825283818151815260200191508051906020019060200280838360005b83811015610bf7578082015181840152602081019050610bdc565b505050509050019250505060405180910390f35b348015610c1757600080fd5b50610c5660048036038101908080359060200190929190803573ffffffffffffffffffffffffffffffffffffffff169060200190929190505050612350565b005b348015610c6457600080fd5b50610ca3600480360381019080803573ffffffffffffffffffffffffffffffffffffffff169060200190929190803590602001909291905050506125ea565b005b348015610cb157600080fd5b50610cba612685565b604051808273ffffffffffffffffffffffffffffffffffffffff1673ffffffffffffffffffffffffffffffffffffffff16815260200191505060405180910390f35b348015610d0857600080fd5b50610d3d600480360381019080803573ffffffffffffffffffffffffffffffffffffffff1690602001909291905050506126ab565b604051808215151515815260200191505060405180910390f35b348015610d6357600080fd5b50610d8260048036038101908080359060200190929190505050612701565b604051808273ffffffffffffffffffffffffffffffffffffffff1673ffffffffffffffffffffffffffffffffffffffff16815260200191505060405180910390f35b348015610dd057600080fd5b50610e05600480360381019080803573ffffffffffffffffffffffffffffffffffffffff169060200190929190505050612734565b6040518082815260200191505060405180910390f35b348015610e2757600080fd5b50610e466004803603810190808035906020019092919050505061274c565b604051808273ffffffffffffffffffffffffffffffffffffffff1673ffffffffffffffffffffffffffffffffffffffff16815260200191505060405180910390f35b348015610e9457600080fd5b50610eb36004803603810190808035906020019092919050505061277f565b604051808273ffffffffffffffffffffffffffffffffffffffff1673ffffffffffffffffffffffffffffffffffffffff16815260200191505060405180910390f35b348015610f0157600080fd5b50610f36600480360381019080803573ffffffffffffffffffffffffffffffffffffffff1690602001909291905050506127b2565b005b348015610f4457600080fd5b50610f4d612852565b6040518080602001828103825283818151815260200191508051906020019060200280838360005b83811015610f90578082015181840152602081019050610f75565b505050509050019250505060405180910390f35b348015610fb057600080fd5b50610fcf600480360381019080803590602001909291905050506128e0565b60405180871515151581526020018673ffffffffffffffffffffffffffffffffffffffff1673ffffffffffffffffffffffffffffffffffffffff1681526020018573ffffffffffffffffffffffffffffffffffffffff1673ffffffffffffffffffffffffffffffffffffffff168152602001847affffffffffffffffffffffffffffffffffffffffffffffffffffff19167affffffffffffffffffffffffffffffffffffffffffffffffffffff19168152602001838152602001828152602001965050505050505060405180910390f35b3480156110ac57600080fd5b506110cb600480360381019080803590602001909291905050506129b3565b604051808681526020018573ffffffffffffffffffffffffffffffffffffffff1673ffffffffffffffffffffffffffffffffffffffff1681526020018473ffffffffffffffffffffffffffffffffffffffff1673ffffffffffffffffffffffffffffffffffffffff1681526020018381526020018281526020019550505050505060405180910390f35b34801561116157600080fd5b50611196600480360381019080803573ffffffffffffffffffffffffffffffffffffffff169060200190929190505050612a48565b005b3480156111a457600080fd5b506111d9600480360381019080803573ffffffffffffffffffffffffffffffffffffffff169060200190929190505050612b9e565b6040518082815260200191505060405180910390f35b3480156111fb57600080fd5b5061121a60048036038101908080359060200190929190505050612bb6565b604051808681526020018573ffffffffffffffffffffffffffffffffffffffff1673ffffffffffffffffffffffffffffffffffffffff1681526020018473ffffffffffffffffffffffffffffffffffffffff1673ffffffffffffffffffffffffffffffffffffffff1681526020018381526020018281526020019550505050505060405180910390f35b3480156112b057600080fd5b506112b9612c3b565b6040518080602001828103825283818151815260200191508051906020019060200280838360005b838110156112fc5780820151818401526020810190506112e1565b505050509050019250505060405180910390f35b34801561131c57600080fd5b5061134760048036038101908080359060200190929190803515159060200190929190505050612cc9565b005b600060405180807f737570706f727473496e74657266616365286279746573342900000000000000815250601901905060405180910390207bffffffffffffffffffffffffffffffffffffffffffffffffffffffff1916827bffffffffffffffffffffffffffffffffffffffffffffffffffffffff19161480611653575060405180807f746f6b656e4d657461646174612875696e743235362c737472696e6729000000815250601d019050604051809103902060405180807f746f6b656e734f664f776e6572286164647265737329000000000000000000008152506016019050604051809103902060405180807f7472616e7366657246726f6d28616464726573732c616464726573732c75696e81526020017f74323536290000000000000000000000000000000000000000000000000000008152506025019050604051809103902060405180807f7472616e7366657228616464726573732c75696e7432353629000000000000008152506019019050604051809103902060405180807f617070726f766528616464726573732c75696e743235362900000000000000008152506018019050604051809103902060405180807f6f776e65724f662875696e7432353629000000000000000000000000000000008152506010019050604051809103902060405180807f62616c616e63654f6628616464726573732900000000000000000000000000008152506012019050604051809103902060405180807f746f74616c537570706c79282900000000000000000000000000000000000000815250600d019050604051809103902060405180807f73796d626f6c28290000000000000000000000000000000000000000000000008152506008019050604051809103902060405180807f6e616d6528290000000000000000000000000000000000000000000000000000815250600601905060405180910390201818181818181818187bffffffffffffffffffffffffffffffffffffffffffffffffffffffff1916827bffffffffffffffffffffffffffffffffffffffffffffffffffffffff1916145b9050919050565b6060611664613c04565b60008073ffffffffffffffffffffffffffffffffffffffff16600260009054906101000a900473ffffffffffffffffffffffffffffffffffffffff1673ffffffffffffffffffffffffffffffffffffffff16141515156116c357600080fd5b600260009054906101000a900473ffffffffffffffffffffffffffffffffffffffff1673ffffffffffffffffffffffffffffffffffffffff1663cb4799f28787876040518463ffffffff167c010000000000000000000000000000000000000000000000000000000002815260040180848152602001806020018281038252848482818152602001925080828437820191505094505050505060a060405180830381600087803b15801561177657600080fd5b505af115801561178a573d6000803e3d6000fd5b505050506040513d601f19601f8201168201806040525060a08110156117af57600080fd5b810190809190826080018051906020019092919050505080925081935050506117d88282612df0565b925050509392505050565b6040805190810160405280600d81526020017f4b69747479436f696e436c75620000000000000000000000000000000000000081525081565b600f60003373ffffffffffffffffffffffffffffffffffffffff1673ffffffffffffffffffffffffffffffffffffffff16815260200190815260200160002060009054906101000a900460ff16151561187457600080fd5b60008111151561188357600080fd5b611891600133858585612e4c565b505050565b6118a03382613194565b15156118ab57600080fd5b6118b58183613200565b7f8c5be1e5ebec7d5bd14f71427d1e84f3dd0314c0f7b2291e5b200ac8c7c3b925338383604051808473ffffffffffffffffffffffffffffffffffffffff1673ffffffffffffffffffffffffffffffffffffffff1681526020018373ffffffffffffffffffffffffffffffffffffffff1673ffffffffffffffffffffffffffffffffffffffff168152602001828152602001935050505060405180910390a15050565b600080600080600080600860003373ffffffffffffffffffffffffffffffffffffffff1673ffffffffffffffffffffffffffffffffffffffff168152602001908152602001600020541415156119ad57600080fd5b6004868154811015156119bc57fe5b90600052602060002090600502016000015493506005848154811015156119df57fe5b906000526020600020906004020160010160149054906101000a90047b01000000000000000000000000000000000000000000000000000000029250611a2483613256565b9150611a32848784336132be565b905080945050505050919050565b6000600160038054905003905090565b60086020528060005260406000206000915090505481565b600073ffffffffffffffffffffffffffffffffffffffff168273ffffffffffffffffffffffffffffffffffffffff1614151515611aa457600080fd5b3073ffffffffffffffffffffffffffffffffffffffff168273ffffffffffffffffffffffffffffffffffffffff1614151515611adf57600080fd5b611ae933826133f7565b1515611af457600080fd5b611afe8382613194565b1515611b0957600080fd5b611b14838383613463565b505050565b6000601060003373ffffffffffffffffffffffffffffffffffffffff1673ffffffffffffffffffffffffffffffffffffffff1681526020019081526020016000205490506000601060003373ffffffffffffffffffffffffffffffffffffffff1673ffffffffffffffffffffffffffffffffffffffff168152602001908152602001600020819055503373ffffffffffffffffffffffffffffffffffffffff166108fc829081150290604051600060405180830381858888f19350505050158015611be8573d6000803e3d6000fd5b5050565b600b6020528060005260406000206000915090505481565b600681815481101515611c1357fe5b906000526020600020016000915090508060000160009054906101000a900460ff16908060000160019054906101000a900473ffffffffffffffffffffffffffffffffffffffff16905082565b600160009054906101000a900473ffffffffffffffffffffffffffffffffffffffff1673ffffffffffffffffffffffffffffffffffffffff163373ffffffffffffffffffffffffffffffffffffffff16141515611cbc57600080fd5b611cc760018261362f565b50565b60008060008060008034111515611ce057600080fd5b600588815481101515611cef57fe5b906000526020600020906004020160000160009054906101000a900460ff161515611d1957600080fd5b34611d2488886137da565b141515611d3057600080fd5b349450859350611d80600589815481101515611d4857fe5b90600052602060002090600402016002015460058a815481101515611d6957fe5b9060005260206000209060040201600301546137f6565b9250600083111515611d9157600093505b8284101515611db357611da486846137f6565b9150611db086836137f6565b93505b611dbd85856137f6565b9050611dc981856137da565b34141515611dd357fe5b611e6088828660058c815481101515611de857fe5b906000526020600020906004020160000160019054906101000a900473ffffffffffffffffffffffffffffffffffffffff1660058d815481101515611e2957fe5b906000526020600020906004020160010160009054906101000a900473ffffffffffffffffffffffffffffffffffffffff1661380f565b5050505050505050565b60006007600083815260200190815260200160002060009054906101000a900473ffffffffffffffffffffffffffffffffffffffff169050600073ffffffffffffffffffffffffffffffffffffffff168173ffffffffffffffffffffffffffffffffffffffff1614151515611ede57600080fd5b919050565b600f6020528060005260406000206000915054906101000a900460ff1681565b6000600860008373ffffffffffffffffffffffffffffffffffffffff1673ffffffffffffffffffffffffffffffffffffffff168152602001908152602001600020549050919050565b6060600060606000806000611f6087611f03565b94506000851415611fa3576000604051908082528060200260200182016040528015611f9b5781602001602082028038833980820191505090505b509550612090565b84604051908082528060200260200182016040528015611fd25781602001602082028038833980820191505090505b509350600160038054905003925060009150600190505b828111151561208c578673ffffffffffffffffffffffffffffffffffffffff166007600083815260200190815260200160002060009054906101000a900473ffffffffffffffffffffffffffffffffffffffff1673ffffffffffffffffffffffffffffffffffffffff16141561207f5780848381518110151561206857fe5b906020019060200201818152505081806001019250505b8080600101915050611fe9565b8395505b5050505050919050565b60076020528060005260406000206000915054906101000a900473ffffffffffffffffffffffffffffffffffffffff1681565b600a6020528060005260406000206000915054906101000a900473ffffffffffffffffffffffffffffffffffffffff1681565b60058181548110151561210f57fe5b90600052602060002090600402016000915090508060000160009054906101000a900460ff16908060000160019054906101000a900473ffffffffffffffffffffffffffffffffffffffff16908060010160009054906101000a900473ffffffffffffffffffffffffffffffffffffffff16908060010160149054906101000a90047b0100000000000000000000000000000000000000000000000000000002908060020154908060030154905086565b6000809054906101000a900473ffffffffffffffffffffffffffffffffffffffff1681565b6040805190810160405280600381526020017f4b4343000000000000000000000000000000000000000000000000000000000081525081565b606080600080600b60008673ffffffffffffffffffffffffffffffffffffffff1673ffffffffffffffffffffffffffffffffffffffff168152602001908152602001600020546040519080825280602002602001820160405280156122925781602001602082028038833980820191505090505b50925060009150600090505b600480549050811015612345578473ffffffffffffffffffffffffffffffffffffffff16600a600083815260200190815260200160002060009054906101000a900473ffffffffffffffffffffffffffffffffffffffff1673ffffffffffffffffffffffffffffffffffffffff1614156123385780838381518110151561232157fe5b906020019060200201818152505081806001019250505b808060010191505061229e565b829350505050919050565b600f60003373ffffffffffffffffffffffffffffffffffffffff1673ffffffffffffffffffffffffffffffffffffffff16815260200190815260200160002060009054906101000a900460ff1615156123a857600080fd5b3373ffffffffffffffffffffffffffffffffffffffff166006838154811015156123ce57fe5b9060005260206000200160000160019054906101000a900473ffffffffffffffffffffffffffffffffffffffff1673ffffffffffffffffffffffffffffffffffffffff1614151561241e57600080fd5b8060068381548110151561242e57fe5b9060005260206000200160000160016101000a81548173ffffffffffffffffffffffffffffffffffffffff021916908373ffffffffffffffffffffffffffffffffffffffff16021790555080600e600084815260200190815260200160002060006101000a81548173ffffffffffffffffffffffffffffffffffffffff021916908373ffffffffffffffffffffffffffffffffffffffff1602179055506001600f60008373ffffffffffffffffffffffffffffffffffffffff1673ffffffffffffffffffffffffffffffffffffffff16815260200190815260200160002060006101000a81548160ff0219169083151502179055506000600f60003373ffffffffffffffffffffffffffffffffffffffff1673ffffffffffffffffffffffffffffffffffffffff16815260200190815260200160002060006101000a81548160ff0219169083151502179055507f3e34f1eab3697fdaa9b08f51e06d295209482378782262c1e7dafe1fe0e1adba8282604051808381526020018273ffffffffffffffffffffffffffffffffffffffff1673ffffffffffffffffffffffffffffffffffffffff1681526020019250505060405180910390a15050565b600073ffffffffffffffffffffffffffffffffffffffff168273ffffffffffffffffffffffffffffffffffffffff161415151561262657600080fd5b3073ffffffffffffffffffffffffffffffffffffffff168273ffffffffffffffffffffffffffffffffffffffff161415151561266157600080fd5b61266b3382613194565b151561267657600080fd5b612681338383613463565b5050565b600260009054906101000a900473ffffffffffffffffffffffffffffffffffffffff1681565b6000600f60008373ffffffffffffffffffffffffffffffffffffffff1673ffffffffffffffffffffffffffffffffffffffff16815260200190815260200160002060009054906101000a900460ff169050919050565b60096020528060005260406000206000915054906101000a900473ffffffffffffffffffffffffffffffffffffffff1681565b600d6020528060005260406000206000915090505481565b600c6020528060005260406000206000915054906101000a900473ffffffffffffffffffffffffffffffffffffffff1681565b600e6020528060005260406000206000915054906101000a900473ffffffffffffffffffffffffffffffffffffffff1681565b600160009054906101000a900473ffffffffffffffffffffffffffffffffffffffff1673ffffffffffffffffffffffffffffffffffffffff163373ffffffffffffffffffffffffffffffffffffffff1614151561280e57600080fd5b80600260006101000a81548173ffffffffffffffffffffffffffffffffffffffff021916908373ffffffffffffffffffffffffffffffffffffffff16021790555050565b60608060008060048054905060405190808252806020026020018201604052801561288c5781602001602082028038833980820191505090505b50925060009150600090505b6004805490508110156128d7578083838151811015156128b457fe5b906020019060200201818152505081806001019250508080600101915050612898565b82935050505090565b60008060008060008060006005888154811015156128fa57fe5b906000526020600020906004020190508060000160009054906101000a900460ff1696508060000160019054906101000a900473ffffffffffffffffffffffffffffffffffffffff1695508060010160009054906101000a900473ffffffffffffffffffffffffffffffffffffffff1694508060010160149054906101000a90047b0100000000000000000000000000000000000000000000000000000002935080600201549250806003015491505091939550919395565b6000806000806000806004878154811015156129cb57fe5b90600052602060002090600502019050806000015495508060010160009054906101000a900473ffffffffffffffffffffffffffffffffffffffff1694508060020160009054906101000a900473ffffffffffffffffffffffffffffffffffffffff16935080600301549250806004015491505091939590929450565b600160009054906101000a900473ffffffffffffffffffffffffffffffffffffffff1673ffffffffffffffffffffffffffffffffffffffff163373ffffffffffffffffffffffffffffffffffffffff16141515612aa457600080fd5b600073ffffffffffffffffffffffffffffffffffffffff168173ffffffffffffffffffffffffffffffffffffffff1614151515612ae057600080fd5b8073ffffffffffffffffffffffffffffffffffffffff166000809054906101000a900473ffffffffffffffffffffffffffffffffffffffff1673ffffffffffffffffffffffffffffffffffffffff167f8be0079c531659141344cd1fd0a4f28419497f9722a3daafe3b4186f6b6457e060405160405180910390a3806000806101000a81548173ffffffffffffffffffffffffffffffffffffffff021916908373ffffffffffffffffffffffffffffffffffffffff16021790555050565b60106020528060005260406000206000915090505481565b600481815481101515612bc557fe5b90600052602060002090600502016000915090508060000154908060010160009054906101000a900473ffffffffffffffffffffffffffffffffffffffff16908060020160009054906101000a900473ffffffffffffffffffffffffffffffffffffffff16908060030154908060040154905085565b606080600080600580549050604051908082528060200260200182016040528015612c755781602001602082028038833980820191505090505b50925060009150600090505b600580549050811015612cc057808383815181101515612c9d57fe5b906020019060200201818152505081806001019250508080600101915050612c81565b82935050505090565b600160009054906101000a900473ffffffffffffffffffffffffffffffffffffffff1673ffffffffffffffffffffffffffffffffffffffff163373ffffffffffffffffffffffffffffffffffffffff16141515612d2557600080fd5b80600683815481101515612d3557fe5b9060005260206000200160000160006101000a81548160ff02191690831515021790555080600f6000600685815481101515612d6d57fe5b9060005260206000200160000160019054906101000a900473ffffffffffffffffffffffffffffffffffffffff1673ffffffffffffffffffffffffffffffffffffffff1673ffffffffffffffffffffffffffffffffffffffff16815260200190815260200160002060006101000a81548160ff0219169083151502179055505050565b606080600080846040519080825280601f01601f191660200182016040528015612e295781602001602082028038833980820191505090505b509250602083019150859050612e40828287613bb9565b82935050505092915050565b60006001600560c06040519081016040528089151581526020018873ffffffffffffffffffffffffffffffffffffffff1681526020018773ffffffffffffffffffffffffffffffffffffffff168152602001867affffffffffffffffffffffffffffffffffffffffffffffffffffff1916815260200185815260200160008152509080600181540180825580915050906001820390600052602060002090600402016000909192909190915060008201518160000160006101000a81548160ff02191690831515021790555060208201518160000160016101000a81548173ffffffffffffffffffffffffffffffffffffffff021916908373ffffffffffffffffffffffffffffffffffffffff16021790555060408201518160010160006101000a81548173ffffffffffffffffffffffffffffffffffffffff021916908373ffffffffffffffffffffffffffffffffffffffff16021790555060608201518160010160146101000a81548164ffffffffff02191690837b01000000000000000000000000000000000000000000000000000000900402179055506080820151816002015560a08201518160030155505003905033600c600083815260200190815260200160002060006101000a81548173ffffffffffffffffffffffffffffffffffffffff021916908373ffffffffffffffffffffffffffffffffffffffff160217905550600d60003373ffffffffffffffffffffffffffffffffffffffff1673ffffffffffffffffffffffffffffffffffffffff168152602001908152602001600020600081548092919060010191905055507fa344822154bcf68c33281a797adb4a32d5a166382d8d63a23193d53a0d74d7c28186868686604051808681526020018573ffffffffffffffffffffffffffffffffffffffff1673ffffffffffffffffffffffffffffffffffffffff1681526020018473ffffffffffffffffffffffffffffffffffffffff1673ffffffffffffffffffffffffffffffffffffffff168152602001837affffffffffffffffffffffffffffffffffffffffffffffffffffff19167affffffffffffffffffffffffffffffffffffffffffffffffffffff191681526020018281526020019550505050505060405180910390a1505050505050565b60008273ffffffffffffffffffffffffffffffffffffffff166007600084815260200190815260200160002060009054906101000a900473ffffffffffffffffffffffffffffffffffffffff1673ffffffffffffffffffffffffffffffffffffffff1614905092915050565b806009600084815260200190815260200160002060006101000a81548173ffffffffffffffffffffffffffffffffffffffff021916908373ffffffffffffffffffffffffffffffffffffffff1602179055505050565b6000808260405180827affffffffffffffffffffffffffffffffffffffffffffffffffffff19167affffffffffffffffffffffffffffffffffffffffffffffffffffff1916815260050191505060405180910390206001900490506012548102915050919050565b60006132c8613c27565b600060606040519081016040528088815260200187815260200186815250915060016003839080600181540180825580915050906001820390600052602060002090600302016000909192909190915060008201518160000155602082015181600101556040820151816002015550500390508063ffffffff168114151561334f57600080fd5b61335b60008583613463565b7ff2eed153a9ddd1a44748dd51273bb9f0fa48f0da85c9dccd63e7f1428f8a955b8482846000015185602001518660400151604051808673ffffffffffffffffffffffffffffffffffffffff1673ffffffffffffffffffffffffffffffffffffffff1681526020018581526020018481526020018381526020018281526020019550505050505060405180910390a18092505050949350505050565b60008273ffffffffffffffffffffffffffffffffffffffff166009600084815260200190815260200160002060009054906101000a900473ffffffffffffffffffffffffffffffffffffffff1673ffffffffffffffffffffffffffffffffffffffff1614905092915050565b600860008373ffffffffffffffffffffffffffffffffffffffff1673ffffffffffffffffffffffffffffffffffffffff16815260200190815260200160002060008154809291906001019190505550816007600083815260200190815260200160002060006101000a81548173ffffffffffffffffffffffffffffffffffffffff021916908373ffffffffffffffffffffffffffffffffffffffff160217905550600073ffffffffffffffffffffffffffffffffffffffff168373ffffffffffffffffffffffffffffffffffffffff1614151561358b57600860008473ffffffffffffffffffffffffffffffffffffffff1673ffffffffffffffffffffffffffffffffffffffff16815260200190815260200160002060008154809291906001900391905055505b7fddf252ad1be2c89b69c2b068fc378daa952ba7f163c4a11628f55a4df523b3ef838383604051808473ffffffffffffffffffffffffffffffffffffffff1673ffffffffffffffffffffffffffffffffffffffff1681526020018373ffffffffffffffffffffffffffffffffffffffff1673ffffffffffffffffffffffffffffffffffffffff168152602001828152602001935050505060405180910390a1505050565b600060016006604080519081016040528086151581526020018573ffffffffffffffffffffffffffffffffffffffff1681525090806001815401808255809150509060018203906000526020600020016000909192909190915060008201518160000160006101000a81548160ff02191690831515021790555060208201518160000160016101000a81548173ffffffffffffffffffffffffffffffffffffffff021916908373ffffffffffffffffffffffffffffffffffffffff160217905550505003905081600e600083815260200190815260200160002060006101000a81548173ffffffffffffffffffffffffffffffffffffffff021916908373ffffffffffffffffffffffffffffffffffffffff16021790555082600f60008473ffffffffffffffffffffffffffffffffffffffff1673ffffffffffffffffffffffffffffffffffffffff16815260200190815260200160002060006101000a81548160ff0219169083151502179055507ff8f43e995d2ad7fa1a314849648f3bf36fdc4eb9dab6f3606593ac7acd8ae5f1816040518082815260200191505060405180910390a1505050565b600081830190508281101515156137ed57fe5b80905092915050565b600082821115151561380457fe5b818303905092915050565b6000806001600460a0604051908101604052808a81526020018773ffffffffffffffffffffffffffffffffffffffff1681526020018673ffffffffffffffffffffffffffffffffffffffff16815260200189815260200188815250908060018154018082558091505090600182039060005260206000209060050201600090919290919091506000820151816000015560208201518160010160006101000a81548173ffffffffffffffffffffffffffffffffffffffff021916908373ffffffffffffffffffffffffffffffffffffffff16021790555060408201518160020160006101000a81548173ffffffffffffffffffffffffffffffffffffffff021916908373ffffffffffffffffffffffffffffffffffffffff1602179055506060820151816003015560808201518160040155505003915061398f601060008673ffffffffffffffffffffffffffffffffffffffff1673ffffffffffffffffffffffffffffffffffffffff16815260200190815260200160002054876137da565b601060008673ffffffffffffffffffffffffffffffffffffffff1673ffffffffffffffffffffffffffffffffffffffff16815260200190815260200160002081905550613a1b601060008573ffffffffffffffffffffffffffffffffffffffff1673ffffffffffffffffffffffffffffffffffffffff16815260200190815260200160002054866137da565b601060008573ffffffffffffffffffffffffffffffffffffffff1673ffffffffffffffffffffffffffffffffffffffff1681526020019081526020016000208190555033600a600084815260200190815260200160002060006101000a81548173ffffffffffffffffffffffffffffffffffffffff021916908373ffffffffffffffffffffffffffffffffffffffff160217905550600b60003373ffffffffffffffffffffffffffffffffffffffff1673ffffffffffffffffffffffffffffffffffffffff16815260200190815260200160002060008154809291906001019190505550613b0986866137da565b9050613b35600588815481101515613b1d57fe5b906000526020600020906004020160030154826137da565b600588815481101515613b4457fe5b9060005260206000209060040201600301819055507f42a5372a58a8fa508a935c0cb34719a03a9982438bb7ad78f9d8e0d03d9ceda78288888885604051808681526020018581526020018481526020018381526020018281526020019550505050505060405180910390a150505050505050565b60005b602082101515613be15782518452602084019350602083019250602082039150613bbc565b6001826020036101000a0390508019835116818551168181178652505050505050565b608060405190810160405280600490602082028038833980820191505090505090565b60606040519081016040528060008152602001600081526020016000815250905600a165627a7a72305820424bb8ecba7fef80839d5055a38ae417e20bdd524b4c8a62bc751bdab7c940cf0029",
  "source": "pragma solidity 0.4.23;\n\nimport \"zeppelin-solidity/contracts/ownership/Ownable.sol\";\nimport \"zeppelin-solidity/contracts/math/SafeMath.sol\";\n\n\n/// @title Interface for contracts conforming to ERC-721: Non-Fungible Tokens\n/// @author Dieter Shirley <dete@axiomzen.co> (https://github.com/dete)\ncontract ERC721 {\n    // Required methods\n    function totalSupply() public view returns (uint256 total);\n    function balanceOf(address _owner) public view returns (uint256 balance);\n    function ownerOf(uint256 _tokenId) external view returns (address owner);\n    function approve(address _to, uint256 _tokenId) external;\n    function transfer(address _to, uint256 _tokenId) external;\n    function transferFrom(address _from, address _to, uint256 _tokenId) external;\n\n    // Events\n    event Transfer(address from, address to, uint256 tokenId);\n    event Approval(address owner, address approved, uint256 tokenId);\n\n    // Optional\n    // function name() public view returns (string name);\n    // function symbol() public view returns (string symbol);\n    // function tokensOfOwner(address _owner) external view returns (uint256[] tokenIds);\n    // function tokenMetadata(uint256 _tokenId, string _preferredTransport) public view returns (string infoUrl);\n\n    // ERC-165 Compatibility (https://github.com/ethereum/EIPs/issues/165)\n    function supportsInterface(bytes4 _interfaceID) external view returns (bool);\n}\n\n\n/// @title The external contract that is responsible for generating metadata for the kitties, \n/// it has one function that will return the data as bytes.\ncontract ERC721Metadata {\n    /// @dev Given a token Id, returns a byte array that is supposed to be converted into string.\n    function getMetadata(uint256 _tokenId, string) public pure returns (bytes32[4] buffer, uint256 count) {\n        if (_tokenId == 1) {\n            buffer[0] = \"Hello World! :D\";\n            count = 15;\n        } else if (_tokenId == 2) {\n            buffer[0] = \"I would definitely choose a medi\";\n            buffer[1] = \"um length string.\";\n            count = 49;\n        } else if (_tokenId == 3) {\n            buffer[0] = \"Lorem ipsum dolor sit amet, mi e\";\n            buffer[1] = \"st accumsan dapibus augue lorem,\";\n            buffer[2] = \" tristique vestibulum id, libero\";\n            buffer[3] = \" suscipit varius sapien aliquam.\";\n            count = 128;\n        }\n    }\n}\n\n\n/// @title KittyCoinClub\n/// @author Nathan Glover\n/// @notice KittyCoinClub contract is the main input to the this DApp, it controls the supply of KittyCoins in circulation and other utilities perdinant to the contract a a whole\ncontract KittyCoinClub is Ownable, ERC721 {\n\n    /* Libraries */\n    using SafeMath for uint256;\n\n    /* Contract owner */\n    address owner;\n\n    /*\n      _______    _                _____       _        _ _     \n     |__   __|  | |              |  __ \\     | |      (_) |    \n        | | ___ | | _____ _ __   | |  | | ___| |_ __ _ _| |___ \n        | |/ _ \\| |/ / _ \\ '_ \\  | |  | |/ _ \\ __/ _` | | / __|\n        | | (_) |   <  __/ | | | | |__| |  __/ || (_| | | \\__ \\\n        |_|\\___/|_|\\_\\___|_| |_| |_____/ \\___|\\__\\__,_|_|_|___/\n    */\n    /// @notice Name and symbol of the non fungible token, as defined in ERC721.\n    string public constant name = \"KittyCoinClub\";\n    string public constant symbol = \"KCC\";\n\n    // uint8 public decimals = 0; // Amount of decimals for display purposes\n    // uint256 public totalSupply = 25600;\n    // uint16 public remainingKittyCoins = 25600 - 256; // there will only ever be 25,000 cats\n    // uint16 public remainingFounderCoins = 256; // there can only be a maximum of 256 founder coins\n\n    // The contract that will return kitty metadata\n    ERC721Metadata public erc721Metadata;\n\n    bytes4 constant InterfaceSignature_ERC165 = bytes4(keccak256(\"supportsInterface(bytes4)\"));\n    bytes4 constant InterfaceSignature_ERC721 = bytes4(keccak256(\"name()\")) ^ \n    bytes4(keccak256(\"symbol()\")) ^ \n    bytes4(keccak256(\"totalSupply()\")) ^ \n    bytes4(keccak256(\"balanceOf(address)\")) ^ \n    bytes4(keccak256(\"ownerOf(uint256)\")) ^ \n    bytes4(keccak256(\"approve(address,uint256)\")) ^ \n    bytes4(keccak256(\"transfer(address,uint256)\")) ^ \n    bytes4(keccak256(\"transferFrom(address,address,uint256)\")) ^ \n    bytes4(keccak256(\"tokensOfOwner(address)\")) ^ \n    bytes4(keccak256(\"tokenMetadata(uint256,string)\"));\n    \n    /*\n     _____ _                   _       \n    / ____| |                 | |      \n   | (___ | |_ _ __ _   _  ___| |_ ___ \n    \\___ \\| __| '__| | | |/ __| __/ __|\n    ____) | |_| |  | |_| | (__| |_\\__ \\\n   |_____/ \\__|_|   \\__,_|\\___|\\__|___/\n    */\n    struct KittyCoin {\n        uint256 kittyId;\n        uint256 donationId;\n        uint coinSeed;\n    }\n\n    struct Donation {\n        uint256 kittyId;\n        address trustAddress;\n        address fosterAddress;\n        uint256 trustAmount;\n        uint256 fosterAmount;\n    }\n\n    struct Kitty {\n        bool donationsEnabled;\n        address trustAddress;\n        address fosterAddress;\n        bytes5 kittyTraitSeed;\n        uint256 donationCap;\n        uint256 donationAmount;\n    }\n\n    struct Trust {\n        bool trustEnabled;\n        address trustAddress;\n    }\n\n    /*\n    _____        _                                            \n    |  __ \\      | |            /\\                             \n    | |  | | __ _| |_ __ _     /  \\   _ __ _ __ __ _ _   _ ___ \n    | |  | |/ _` | __/ _` |   / /\\ \\ | '__| '__/ _` | | | / __|\n    | |__| | (_| | || (_| |  / ____ \\| |  | | | (_| | |_| \\__ \\\n    |_____/ \\__,_|\\__\\__,_| /_/    \\_\\_|  |_|  \\__,_|\\__, |___/\n                                                    __/ |    \n                                                    |___/     \n    */\n    KittyCoin[] kittyCoins;\n    Donation[] public donations;\n    Kitty[] public kitties;\n    Trust[] public trusts;\n\n    /*\n     __  __                   _                 \n    |  \\/  |                 (_)                \n    | \\  / | __ _ _ __  _ __  _ _ __   __ _ ___ \n    | |\\/| |/ _` | '_ \\| '_ \\| | '_ \\ / _` / __|\n    | |  | | (_| | |_) | |_) | | | | | (_| \\__ \\\n    |_|  |_|\\__,_| .__/| .__/|_|_| |_|\\__, |___/\n                | |   | |             __/ |    \n                |_|   |_|            |___/     \n    */\n    /// @dev A mapping from KittyCoin IDs to the address that owns them. All coins have\n    ///  some valid owner address.\n    mapping (uint256 => address) public kittyCoinToOwner;\n\n    // @dev A mapping from owner address to count of KittyCoins that address owns.\n    //  Used internally inside balanceOf() to resolve ownership count.\n    mapping (address => uint256) public kittyCoinCount;\n\n    /// @dev A mapping from KittyIDs to an address that has been approved to call\n    ///  transferFrom(). Each Kitty can only have one approved address for transfer\n    ///  at any time. A zero value means no approval is outstanding.\n    mapping (uint256 => address) public kittyCoinToApproved;\n\n    mapping (uint256 => address) public donationToDonator;\n    mapping (address => uint) public donationCount;\n\n    mapping (uint256 => address) public kittyToTrust;\n    mapping (address => uint) public kittyCount;\n\n    mapping (uint256 => address) public trustIdToAddress;\n    mapping (address => bool) public trusted;\n\n    mapping (address => uint256) public pendingWithdrawals; // ETH pending for address\n\n    /*\n     ______               _       \n    |  ____|             | |      \n    | |____   _____ _ __ | |_ ___ \n    |  __\\ \\ / / _ \\ '_ \\| __/ __|\n    | |___\\ V /  __/ | | | |_\\__ \\\n    |______\\_/ \\___|_| |_|\\__|___/\n    */\n    event NewKittyCoin(address _owner, uint256 kittyCoinId, uint256 kittyId, uint256 donationId, uint coinSeed);\n    event NewDonation(uint256 donationId, uint256 kittyId, uint256 trustAmount, uint256 fosterAmount, uint256 totalDonationAmount);\n    event NewKitty(uint256 kittyId, address trustAddress, address fosterAddress, bytes5 traitSeed, uint256 donationCap);\n    event NewTrust(uint256 trustId);\n    event ChangedTrustAddress(uint256 trustId, address trustAddr);\n\n    /// @dev Transfer event as defined in current draft of ERC721. Emitted every time a kittycoin\n    ///  ownership is assigned.\n    event Transfer(address from, address to, uint256 tokenId);\n\n    /*\n     __  __           _ _  __ _               \n    |  \\/  |         | (_)/ _(_)              \n    | \\  / | ___   __| |_| |_ _  ___ _ __ ___ \n    | |\\/| |/ _ \\ / _` | |  _| |/ _ \\ '__/ __|\n    | |  | | (_) | (_| | | | | |  __/ |  \\__ \\\n    |_|  |_|\\___/ \\__,_|_|_| |_|\\___|_|  |___/\n    */\n    /// @notice Throws if called by any account that is a not a trust\n    modifier onlyTrust() {\n        require(trusted[msg.sender]);\n        _;\n    }\n\n    modifier onlyOwner() {\n        require(msg.sender == owner);\n        _;\n    }\n\n    /*\n      _____                _                   _             \n     / ____|              | |                 | |            \n    | |     ___  _ __  ___| |_ _ __ _   _  ___| |_ ___  _ __ \n    | |    / _ \\| '_ \\/ __| __| '__| | | |/ __| __/ _ \\| '__|\n    | |___| (_) | | | \\__ \\ |_| |  | |_| | (__| || (_) | |   \n     \\_____\\___/|_| |_|___/\\__|_|   \\__,_|\\___|\\__\\___/|_|   \n    */\n    /// @notice Contructor for the KittCoinClub contract\n    constructor() payable public {\n        owner = msg.sender;\n        //assert((remainingKittyCoins + remainingFounderCoins) == totalSupply);\n    }\n\n    /*\n      _______    _              \n     |__   __|  | |             \n        | | ___ | | _____ _ __  \n        | |/ _ \\| |/ / _ \\ '_ \\ \n        | | (_) |   <  __/ | | |\n        |_|\\___/|_|\\_\\___|_| |_|\n    */\n    /// @dev Assigns ownership of a specific KittyCoin to an address.\n    function _transfer(address _from, address _to, uint256 _tokenId) internal {\n        // Since the number of kittycoins is capped to 2^32 we can't overflow this\n        kittyCoinCount[_to]++;\n        // transfer ownership\n        kittyCoinToOwner[_tokenId] = _to;\n        // When creating new kittens _from is 0x0, but we can't account that address.\n        if (_from != address(0)) {\n            kittyCoinCount[_from]--;\n        }\n        // Emit the transfer event.\n        emit Transfer(_from, _to, _tokenId);\n    }\n\n    /// @notice Introspection interface as per ERC-165 (https://github.com/ethereum/EIPs/issues/165).\n    ///  Returns true for any standardized interfaces implemented by this contract. We implement\n    ///  ERC-165 (obviously!) and ERC-721.\n    function supportsInterface(bytes4 _interfaceID) external view returns (bool) {\n        // DEBUG ONLY\n        //require((InterfaceSignature_ERC165 == 0x01ffc9a7) && (InterfaceSignature_ERC721 == 0x9a20483d));\n        return ((_interfaceID == InterfaceSignature_ERC165) || (_interfaceID == InterfaceSignature_ERC721));\n    }\n\n    /// @dev Set the address of the sibling contract that tracks metadata.\n    function setMetadataAddress(address _contractAddress) public onlyOwner {\n        erc721Metadata = ERC721Metadata(_contractAddress);\n    }\n\n    // Internal utility functions: These functions all assume that their input arguments\n    // are valid. We leave it to public methods to sanitize their inputs and follow\n    // the required logic.\n\n    /// @dev Checks if a given address is the current owner of a particular KittyCoin.\n    /// @param _claimant the address we are validating against.\n    /// @param _tokenId kittencoin id, only valid when > 0\n    function _owns(address _claimant, uint256 _tokenId) internal view returns (bool) {\n        return kittyCoinToOwner[_tokenId] == _claimant;\n    }\n\n    /// @dev Checks if a given address currently has transferApproval for a particular KittyCoin.\n    /// @param _claimant the address we are confirming kittycoin is approved for.\n    /// @param _tokenId kittycoin id, only valid when > 0\n    function _approvedFor(address _claimant, uint256 _tokenId) internal view returns (bool) {\n        return kittyCoinToApproved[_tokenId] == _claimant;\n    }\n\n    /// @dev Marks an address as being approved for transferFrom(), overwriting any previous\n    ///  approval. Setting _approved to address(0) clears all transfer approval.\n    ///  NOTE: _approve() does NOT send the Approval event. This is intentional because\n    ///  _approve() and transferFrom() are used together for putting Kitties on auction, and\n    ///  there is no value in spamming the log with Approval events in that case.\n    function _approve(uint256 _tokenId, address _approved) internal {\n        kittyCoinToApproved[_tokenId] = _approved;\n    }\n\n    /// @notice Returns the number of KittyCoins owned by a specific address.\n    /// @param _owner The owner address to check.\n    /// @dev Required for ERC-721 compliance\n    function balanceOf(address _owner) public view returns (uint256 count) {\n        return kittyCoinCount[_owner];\n    }\n\n    /// @notice Transfers a KittyCoin to another address. If transferring to a smart\n    ///  contract be VERY CAREFUL to ensure that it is aware of ERC-721 (or\n    ///  KittyCoin Club specifically) or your KittyCoin may be lost forever. Seriously.\n    /// @param _to The address of the recipient, can be a user or contract.\n    /// @param _tokenId The ID of the KittyCoin to transfer.\n    /// @dev Required for ERC-721 compliance.\n    function transfer(\n        address _to,\n        uint256 _tokenId\n    )\n        external\n    {\n        // Safety check to prevent against an unexpected 0x0 default.\n        require(_to != address(0));\n        // Disallow transfers to this contract to prevent accidental misuse.\n        // The contract should never own any kittycoins (except maybe very briefly\n        // at the start of the contract deploy).\n        require(_to != address(this));\n\n        // You can only send your own kittycoin.\n        require(_owns(msg.sender, _tokenId));\n\n        // Reassign ownership, clear pending approvals, emit Transfer event.\n        _transfer(msg.sender, _to, _tokenId);\n    }\n\n    /// @notice Grant another address the right to transfer a specific KittyCoin via\n    ///  transferFrom(). This is the preferred flow for transfering NFTs to contracts.\n    /// @param _to The address to be granted transfer approval. Pass address(0) to\n    ///  clear all approvals.\n    /// @param _tokenId The ID of the KittyCoin that can be transferred if this call succeeds.\n    /// @dev Required for ERC-721 compliance.\n    function approve(\n        address _to,\n        uint256 _tokenId\n    )\n        external\n    {\n        // Only an owner can grant transfer approval.\n        require(_owns(msg.sender, _tokenId));\n\n        // Register the approval (replacing any previous approval).\n        _approve(_tokenId, _to);\n\n        // Emit approval event.\n        emit Approval(msg.sender, _to, _tokenId);\n    }\n\n    /// @notice Transfer a KittyCoin owned by another address, for which the calling address\n    ///  has previously been granted transfer approval by the owner.\n    /// @param _from The address that owns the KittyCoin to be transfered.\n    /// @param _to The address that should take ownership of the KittyCoin. Can be any address,\n    ///  including the caller.\n    /// @param _tokenId The ID of the KittyCoin to be transferred.\n    /// @dev Required for ERC-721 compliance.\n    function transferFrom(\n        address _from,\n        address _to,\n        uint256 _tokenId\n    )\n        external\n    {\n        // Safety check to prevent against an unexpected 0x0 default.\n        require(_to != address(0));\n        // Disallow transfers to this contract to prevent accidental misuse.\n        // The contract should never own any kittycoins (except maybe very briefly\n        // at the start of the contract deploy).\n        require(_to != address(this));\n        // Check for approval and valid ownership\n        require(_approvedFor(msg.sender, _tokenId));\n        require(_owns(_from, _tokenId));\n\n        // Reassign ownership (also clears pending approvals and emits Transfer event).\n        _transfer(_from, _to, _tokenId);\n    }\n\n    /// @notice Returns the total number of KittyCoins currently in existence.\n    /// @dev Required for ERC-721 compliance.\n    function totalSupply() public view returns (uint) {\n        return kittyCoins.length - 1;\n    }\n\n    /// @notice Returns the address currently assigned ownership of a given KittyCoin.\n    /// @dev Required for ERC-721 compliance.\n    function ownerOf(uint256 _tokenId)\n        external\n        view\n        returns (address _owner)\n    {\n        _owner = kittyCoinToOwner[_tokenId];\n\n        require(_owner != address(0));\n    }\n\n    /// @notice Returns a list of all KittyCoin IDs assigned to an address.\n    /// @param _owner The owner whose KittyCoins we are interested in.\n    /// @dev This method MUST NEVER be called by smart contract code. First, it's fairly\n    ///  expensive (it walks the entire KittyCoin array looking for coins belonging to owner),\n    ///  but it also returns a dynamic array, which is only supported for web3 calls, and\n    ///  not contract-to-contract calls.\n    function tokensOfOwner(address _owner) external view returns(uint256[] ownerTokens) {\n        uint256 tokenCount = balanceOf(_owner);\n\n        if (tokenCount == 0) {\n            // Return an empty array\n            return new uint256[](0);\n        } else {\n            uint256[] memory result = new uint256[](tokenCount);\n            uint256 totalKittyCoins = kittyCoins.length - 1;\n            uint256 resultIndex = 0;\n\n            // We count on the fact that all cats have IDs starting at 1 and increasing\n            // sequentially up to the totalCat count.\n            uint256 kittyCoinId;\n\n            for (kittyCoinId = 1; kittyCoinId <= totalKittyCoins; kittyCoinId++) {\n                if (kittyCoinToOwner[kittyCoinId] == _owner) {\n                    result[resultIndex] = kittyCoinId;\n                    resultIndex++;\n                }\n            }\n            return result;\n        }\n    }\n\n    /// @dev Adapted from memcpy() by @arachnid (Nick Johnson <arachnid@notdot.net>)\n    ///  This method is licenced under the Apache License.\n    ///  Ref: https://github.com/Arachnid/solidity-stringutils/blob/2f6ca9accb48ae14c66f1437ec50ed19a0616f78/strings.sol\n    function _memcpy(\n        uint _dest, \n        uint _src, \n        uint _len\n    ) \n        private \n        pure \n    {\n        // Copy word-length chunks while possible\n        for (; _len >= 32; _len -= 32) {\n            assembly {\n                mstore(_dest, mload(_src))\n            }\n            _dest += 32;\n            _src += 32;\n        }\n\n        // Copy remaining bytes\n        uint256 mask = 256 ** (32 - _len) - 1;\n        assembly {\n            let srcpart := and(mload(_src), not(mask))\n            let destpart := and(mload(_dest), mask)\n            mstore(_dest, or(destpart, srcpart))\n        }\n    }\n\n    /// @dev Adapted from toString(slice) by @arachnid (Nick Johnson <arachnid@notdot.net>)\n    ///  This method is licenced under the Apache License.\n    ///  Ref: https://github.com/Arachnid/solidity-stringutils/blob/2f6ca9accb48ae14c66f1437ec50ed19a0616f78/strings.sol\n    function _toString(bytes32[4] _rawBytes, uint256 _stringLength) private pure returns (string) {\n        var outputString = new string(_stringLength);\n        uint256 outputPtr;\n        uint256 bytesPtr;\n\n        assembly {\n            outputPtr := add(outputString, 32)\n            bytesPtr := _rawBytes\n        }\n\n        _memcpy(outputPtr, bytesPtr, _stringLength);\n\n        return outputString;\n    }\n\n    /// @notice Returns a URI pointing to a metadata package for this token conforming to\n    ///  ERC-721 (https://github.com/ethereum/EIPs/issues/721)\n    /// @param _tokenId The ID number of the Kitty whose metadata should be returned.\n    function tokenMetadata(uint256 _tokenId, string _preferredTransport) external view returns (string infoUrl) {\n        require(erc721Metadata != address(0));\n        bytes32[4] memory buffer;\n        uint256 count;\n\n        (buffer, count) = erc721Metadata.getMetadata(_tokenId, _preferredTransport);\n        return _toString(buffer, count);\n    }\n\n    /*\n    __          __   _ _      _     _    _      _                     \n    \\ \\        / /  | | |    | |   | |  | |    | |                    \n     \\ \\  /\\  / /_ _| | | ___| |_  | |__| | ___| |_ __   ___ _ __ ___ \n      \\ \\/  \\/ / _` | | |/ _ \\ __| |  __  |/ _ \\ | '_ \\ / _ \\ '__/ __|\n       \\  /\\  / (_| | | |  __/ |_  | |  | |  __/ | |_) |  __/ |  \\__ \\\n        \\/  \\/ \\__,_|_|_|\\___|\\__| |_|  |_|\\___|_| .__/ \\___|_|  |___/\n                                                | |\n                                                |_|   \n    */\n    /// @notice Allows the withdrawal of any owed currency to a sender\n    function withdraw() public {\n        uint256 amount = pendingWithdrawals[msg.sender];\n        pendingWithdrawals[msg.sender] = 0;\n        msg.sender.transfer(amount);\n    }\n\n    /*\n                                              _          _____      _   _                \n        /\\                                   | |        / ____|    | | | |               \n       /  \\   __ _  __ _ _ __ ___  __ _  __ _| |_ ___  | |  __  ___| |_| |_ ___ _ __ ___ \n      / /\\ \\ / _` |/ _` | '__/ _ \\/ _` |/ _` | __/ _ \\ | | |_ |/ _ \\ __| __/ _ \\ '__/ __|\n     / ____ \\ (_| | (_| | | |  __/ (_| | (_| | ||  __/ | |__| |  __/ |_| ||  __/ |  \\__ \\\n    /_/    \\_\\__, |\\__, |_|  \\___|\\__, |\\__,_|\\__\\___|  \\_____|\\___|\\__|\\__\\___|_|  |___/\n            __/ | __/ |          __/ |                                                 \n            |___/ |___/          |___/                                                  \n    */\n    /// @notice Retrieves an array containing all Donations.\n    /// @return an array of donations\n    function getDonations() external view returns(uint256[]) {\n        uint256[] memory result = new uint256[](donations.length);\n        uint256 counter = 0;\n        for (uint256 i = 0; i < donations.length; i++) {\n            result[counter] = i;\n            counter++;\n        }\n        return result;\n    }\n\n    /// @notice Retrieves an array containing all Kitties up for donation.\n    /// @return an array of kitties that are up for donation\n    function getKitties() external view returns(uint256[]) {\n        uint256[] memory result = new uint[](kitties.length);\n        uint256 counter = 0;\n        for (uint256 i = 0; i < kitties.length; i++) {\n            result[counter] = i;\n            counter++;\n        }\n        return result;\n    }\n\n    /*\n     _  ___ _   _          _____      _       \n    | |/ (_) | | |        / ____|    (_)      \n    | ' / _| |_| |_ _   _| |     ___  _ _ __  \n    |  < | | __| __| | | | |    / _ \\| | '_ \\ \n    | . \\| | |_| |_| |_| | |___| (_) | | | | |\n    |_|\\_\\_|\\__|\\__|\\__, |\\_____\\___/|_|_| |_|\n                    __/ |                    \n                    |___/                     \n    */\n    uint coinDigits = 16;\n    uint coinSeedModulus = 10 ** coinDigits;\n\n    /// @notice generate the KittyCoins safely\n    /// @param _kittyId identifier of the kitty who recieved the donation for this coin\n    /// @param _donationId donation identifier that is linked to this coin\n    /// @param _seed the generated seed\n    function _createKittyCoin(\n        uint256 _kittyId, \n        uint256 _donationId, \n        uint256 _seed,\n        address _owner\n        ) \n            internal\n            returns (uint)\n        {\n        \n        KittyCoin memory _kittyCoin = KittyCoin({\n            kittyId: _kittyId,\n            donationId: _donationId,\n            coinSeed: _seed\n        });\n        uint256 newKittyCoinId = kittyCoins.push(_kittyCoin) - 1;\n        // It's probably never going to happen, 4 billion kittycoins is A LOT, but\n        // let's just be 100% sure we never let this happen.\n        require(newKittyCoinId == uint256(uint32(newKittyCoinId)));\n\n        // This will assign ownership, and also emit the Transfer event as\n        // per ERC721 draft\n        _transfer(0, _owner, newKittyCoinId);\n\n        // Send KittyCoin event\n        emit NewKittyCoin(\n            _owner,\n            newKittyCoinId, \n            uint256(_kittyCoin.kittyId), \n            uint256(_kittyCoin.donationId), \n            uint256(_kittyCoin.coinSeed)\n        );\n\n        return newKittyCoinId;\n    }\n\n    //TODO work out if changing this input parameter to a uint is bad\n    /// @notice Generates the random seed based on an input string\n    /// @param _kittyTraits input seed for the randomly generated coin\n    /// @return a random seed\n    function _generateRandomSeed(bytes5 _kittyTraits) private view returns (uint256) {\n        uint256 rand = uint256(keccak256(_kittyTraits));\n        return rand * coinSeedModulus;\n    }\n    \n    /// @notice Generates a Kitty coin for a donation that has been made\n    /// @param _donationId donation to be used to generate the coin\n    /// @return _kittyCoinId of the new KittyCoin\n    function createRandomKittyCoin(uint256 _donationId) public returns(uint256) {\n        // Confirm that the owner doesn't have any kittycoins\n        require(kittyCoinCount[msg.sender] == 0);\n        uint256 kittyId = donations[_donationId].kittyId;\n        bytes5 kittyTraitSeed = kitties[kittyId].kittyTraitSeed;\n        // the seed for the kittycoin is generated based on the input string\n        uint256 randSeed = _generateRandomSeed(kittyTraitSeed);\n        // The cat is created by a private function\n        uint256 _kittyCoinId = _createKittyCoin(\n            kittyId, \n            _donationId, \n            randSeed, \n            msg.sender\n            );\n        return _kittyCoinId;\n    }\n\n    /*\n     _____                    _   _             \n    |  __ \\                  | | (_)            \n    | |  | | ___  _ __   __ _| |_ _  ___  _ __  \n    | |  | |/ _ \\| '_ \\ / _` | __| |/ _ \\| '_ \\ \n    | |__| | (_) | | | | (_| | |_| | (_) | | | |\n    |_____/ \\___/|_| |_|\\__,_|\\__|_|\\___/|_| |_|                                        \n    */\n    /// @notice Performs a donation based on the computed variables from the donator.\n    /// @param _kittyId The id of the kitty being donated to\n    /// @param _trustAmount The amount being donated to the trust\n    /// @param _fosterAmount The amount being donated to the foster carer\n    /// @param _trustAddress The wallet address of the trust\n    /// @param _fosterAddress The wallet address of the foster carer\n    function _donate(\n        uint256 _kittyId, \n        uint256 _trustAmount, \n        uint256 _fosterAmount, \n        address _trustAddress, \n        address _fosterAddress) internal\n        {\n\n        uint256 id = donations.push(Donation(\n            _kittyId, \n            _trustAddress, \n            _fosterAddress, \n            _trustAmount, \n            _fosterAmount\n            )) - 1;\n\n        // Complete the transaction\n        pendingWithdrawals[_trustAddress] = SafeMath.add(pendingWithdrawals[_trustAddress], _trustAmount);\n        pendingWithdrawals[_fosterAddress] = SafeMath.add(pendingWithdrawals[_fosterAddress], _fosterAmount);\n\n        donationToDonator[id] = msg.sender;\n        donationCount[msg.sender]++;\n\n        // Safe Maths sum total\n        uint256 totalAmount = SafeMath.add(_trustAmount, _fosterAmount);\n\n        // Add amount to a kitties donation limit\n        kitties[_kittyId].donationAmount = SafeMath.add(kitties[_kittyId].donationAmount, totalAmount);\n\n        emit NewDonation(\n            id, \n            _kittyId, \n            _trustAmount,\n            _fosterAmount, \n            totalAmount\n            );\n    }\n\n    /// @notice Performs a donation, If the foster carer has reached their limit for donations when the amount goes to the trust.\n    /// @param _kittyId The id of the kitty being donated to\n    /// @param _trustAmount Amount that should go to the trust\n    /// @param _fosterAmount Amount that should go to the foster carer\n    function makeDonation(uint256 _kittyId, uint256 _trustAmount, uint256 _fosterAmount) payable public {\n        require(msg.value > 0);\n        require(kitties[_kittyId].donationsEnabled);\n        require(SafeMath.add(_trustAmount, _fosterAmount) == msg.value);\n\n        // Safe Maths donation\n        uint256 donationTotal = msg.value;\n        uint256 fosterAmount = _fosterAmount;\n        uint256 donationLimit = SafeMath.sub(kitties[_kittyId].donationCap, kitties[_kittyId].donationAmount);\n        if (donationLimit <= 0) {\n            fosterAmount = 0;\n        }\n        if (fosterAmount >= donationLimit) {\n            uint256 fosterOverflow = SafeMath.sub(_fosterAmount, donationLimit);\n            fosterAmount = SafeMath.sub(_fosterAmount, fosterOverflow);\n        }\n        uint256 trustAmount = SafeMath.sub(donationTotal, fosterAmount);\n        // Validate the maths worked correctly\n        assert(msg.value == SafeMath.add(trustAmount, fosterAmount));\n\n        // Make the donation\n        _donate(\n            _kittyId, \n            trustAmount, \n            fosterAmount, \n            kitties[_kittyId].trustAddress, \n            kitties[_kittyId].fosterAddress\n            );\n    }\n    \n    /// @notice Performs a donation, computing the ratio of the funds that should go to the trust and the foster carer. If the foster carer has reached their limit for donations when the amount goes to the trust.\n    /// @param _donator Donator address\n    /// @return an array of donation identifiers\n    function getDonationsByDonator(address _donator) external view returns(uint256[]) {\n        uint[] memory result = new uint[](donationCount[_donator]);\n        uint counter = 0;\n        for (uint i = 0; i < donations.length; i++) {\n            if (donationToDonator[i] == _donator) {\n                result[counter] = i;\n                counter++;\n            }\n        }\n        return result;\n    }\n\n    /// @notice Gets a donation object based on its id\n    /// @param _donationId The ID of the donation\n    /// @return Contents of the Donation struct\n    function getDonation(uint256 _donationId)\n        external \n        view \n        returns(\n        uint256 kittyId,\n        address trustAddress,\n        address fosterAddress,\n        uint256 trustAmount,\n        uint256 fosterAmount\n    ) {\n        Donation storage donation = donations[_donationId];\n        kittyId = donation.kittyId;\n        trustAddress = donation.trustAddress;\n        fosterAddress = donation.fosterAddress;\n        trustAmount = uint256(donation.trustAmount);\n        fosterAmount = uint256(donation.fosterAmount);\n    }\n\n    /*\n     _  ___ _   _         \n    | |/ (_) | | |        \n    | ' / _| |_| |_ _   _ \n    |  < | | __| __| | | |\n    | . \\| | |_| |_| |_| |\n    |_|\\_\\_|\\__|\\__|\\__, |\n                     __/ |\n                    |___/ \n    */\n    /// @notice private function to create a new kitty which goes up for donation\n    /// @param _enabled Toggles the donation status on this kitty\n    /// @param _trustAddr The wallet address of the trust\n    /// @param _fosterAddr The wallet address of the foster carer\n    /// @param _traitSeed Unique traits for this kitty\n    /// @param _donationCap The maximum amount that the carer can receive\n    function _createKitty(\n        bool _enabled, \n        address _trustAddr, \n        address _fosterAddr, \n        bytes5 _traitSeed, \n        uint256 _donationCap\n        ) internal\n        {   \n            \n        uint256 id = kitties.push(Kitty(\n            _enabled, \n            _trustAddr, \n            _fosterAddr, \n            _traitSeed, \n            _donationCap,\n            0 // Default donation start at 0\n            )) - 1;\n\n        kittyToTrust[id] = msg.sender;\n        kittyCount[msg.sender]++;\n        emit NewKitty(\n            id, \n            _trustAddr, \n            _fosterAddr, \n            _traitSeed, \n            _donationCap\n            );\n    }\n\n    /// @notice Creates a new kitty which goes up for donation\n    /// @param _fosterAddress The wallet address of the foster carer\n    /// @param _traitSeed Unique traits for this kitty\n    /// @param _donationCap The maximum amount that the carer can receive\n    function createKitty(address _fosterAddress, bytes5 _traitSeed, uint256 _donationCap) onlyTrust public {\n        require(_donationCap > 0);\n        _createKitty(\n            true, \n            msg.sender, \n            _fosterAddress, \n            _traitSeed, \n            _donationCap\n            );\n    }\n\n    /// @notice Returns all the relevant information about a specific kitty.\n    /// @param _kittyId The ID of the kitty of interest.\n    function getKitty(uint256 _kittyId)\n        external\n        view\n        returns (\n        bool isEnabled,\n        address trustAddress,\n        address fosterAddress,\n        bytes5 traitSeed,\n        uint256 donationCap,\n        uint256 donationAmount\n    ) {\n        Kitty storage kitty = kitties[_kittyId];\n        isEnabled = kitty.donationsEnabled;\n        trustAddress = kitty.trustAddress;\n        fosterAddress = kitty.fosterAddress;\n        traitSeed = bytes5(kitty.kittyTraitSeed);\n        donationCap = uint256(kitty.donationCap);\n        donationAmount = uint256(kitty.donationAmount);\n    }\n    \n    /*\n      _______             _   \n     |__   __|           | |  \n        | |_ __ _   _ ___| |_ \n        | | '__| | | / __| __|\n        | | |  | |_| \\__ \\ |_ \n        |_|_|   \\__,_|___/\\__|\n    */\n    /// @notice Private trust creation that is handled internally\n    /// @param _enabled Is the trust enabled\n    /// @param _trustAddr The address to link this trust to\n    function _createTrust(bool _enabled, address _trustAddr) internal {\n        uint256 id = trusts.push(Trust(_enabled, _trustAddr)) - 1;\n        trustIdToAddress[id] = _trustAddr;\n        trusted[_trustAddr] = _enabled;\n        emit NewTrust(id);\n    }\n\n    /// @notice Allows the contract owner to add a new trust\n    /// @param _trustAddr The address to link this trust to\n    function createTrust(address _trustAddr) onlyOwner public {\n        _createTrust(true, _trustAddr);\n    }\n\n    /// @notice Allows the contract owner to enable and disable trusts\n    /// @param _id The id of the trust that should be toggled\n    /// @param _enabled A boolean true or false, where true is to enable and false is to disable the trust\n    function toggleTrust(uint256 _id, bool _enabled) onlyOwner public {\n        trusts[_id].trustEnabled = _enabled;\n        trusted[trusts[_id].trustAddress] = _enabled;\n    }\n\n    /// @notice Allows a trust to change their address\n    /// @param _newTrustAddr The new trust address to be set\n    function changeTrustAddress(uint256 _id, address _newTrustAddr) onlyTrust public {\n        require(trusts[_id].trustAddress == msg.sender);\n        trusts[_id].trustAddress = _newTrustAddr;\n        trustIdToAddress[_id] = _newTrustAddr;\n        //TODO replace this logic with something better\n        trusted[_newTrustAddr] = true;\n        trusted[msg.sender] = false;\n        emit ChangedTrustAddress(_id, _newTrustAddr);\n    }\n\n    /// @notice Checks if a given address belongs to a trust\n    /// @param _address is the address that needs to be checked\n    /// @return a boolean defining if a given address belongs to a trust\n    function isTrustAddress(address _address) public view returns (bool) {\n        return trusted[_address];\n    }\n}",
  "sourcePath": "/Users/nathan/Projects/smart-contracts/kittycoin-club/contracts/KittyCoinClub.sol",
  "compiler": {
    "name": "solc",
    "version": "0.4.23+commit.124ca40d.Emscripten.clang"
  },
  "schemaVersion": "2.0.0",
  "updatedAt": "2018-05-20T14:38:07.799Z"
}